:100000000DC01DC01CC01BC01AC019C018C017C02D
:1000100016C015C00001070F203F7FFF11241FBE2F
:10002000CFE9CDBF10E0A0E6B0E0EEE1F1E002C024
:1000300005900D92A236B107D9F724D06EC0E0CF5B
:1000400028ED3EE0811101C00895F9013197F1F7E3
:100050008150F8CF8AEFF4CF369A3699FECF85B12A
:10006000089591E29FBD811102C019BC08958330AB
:1000700010F093E29FBDE82FF0E0EC5EFF4FE491BB
:10008000E9BD0895B99A81E083BF80916300811131
:100090000BC08091620090916000891728F48F5FF7
:1000A00080936200891718F081E0809362001092BB
:1000B0006300A29A81E687B986EC86B9369A809168
:1000C0006200CFDFC0E0D1E28DE7BADF349BFCCF26
:1000D00085B1853818F0C0E0369AF6CFCF5FC830CA
:1000E000D9F780916200823040F0815080936200A5
:1000F00080916200B6DFAEDFEECF10926200DFBD0E
:1001000019BC85B7877E806185BF85B7806285BF52
:0E011000889585B78F7D85BFEBCFF894FFCF24
:02011E000800D7
:00000001FF
